:020000040800F2
:1000000000080020991D0008A11D0008A11D00087E
:1000100000000000000000000000000000000000E0
:10002000000000000000000000000000A11D00080A
:100030000000000000000000A11D00089905000854
:10004000A11D000800000000A11D0008A11D00085E
:10005000A11D0008A11D0008A11D0008DD16000853
:1000600000000000A11D0008A11D0008A11D00083E
:10007000A11D00086516000800000000A11D000871
:100080000000000000000000000000000000000070
:10009000A11D000800000000A11D0008A11D00080E
:1000A00000000000A11D000800000000000000008A
:0800B000A11D000881060008F3
:1000B800402292029A1A92467047C046154B002B6E
:1000C80000D1114B9D46FFF7F3FF00218B460F46E9
:1000D8001148124A121A01F025FF0C4B002B00D0D0
:1000E80098470B4B002B00D09847002000210400B4
:1000F8000D000B4801F052FE01F07CFE20002900A3
:1001080000F010F801F052FE0000080000000000A6
:100118000000000000000000340400208C040020CF
:10012800D51D000880B500AFA54B5B68A54A1A40ED
:10013800A34BC02109020A435A60A14BDB680C2279
:10014800134017D0A04B1A689F4B01210A431A602D
:10015800C0469D4B1B6801221340FAD0984BDA68C1
:10016800974B03218A43DA60C046954BDB680C2223
:100178001340FAD1924B1B6D022213400CD1904BC5
:100188001A6D8F4B01210A431A6500E0C0468C4B5B
:100198001B6D02221340F9D0894B5A6B884B8B494F
:1001A8000A435A63864B9A6B854B89490A439A637B
:1001B800834BDB6C874A1A40814B87490A43DA64D0
:1001C8007F4BDA6A7E4B83210A43DA62A023DB0580
:1001D80001220021180000F01DF9A023DB050022F0
:1001E8000421180000F016F9A023DB0502220221E1
:1001F800180000F00FF9A023DB05022203211800E4
:1002080000F008F9A023DB0506220221180000F0FF
:1002180036F9A023DB0506220321180000F02FF988
:10022800A023DB0502220521180000F0F3F8A02323
:10023800DB0502220621180000F0ECF8A023DB05FC
:1002480002220721180000F0E5F8A023DB050022B0
:100258000521180000F013F9A023DB050022062170
:10026800180000F00CF9A023DB0500220721180074
:1002780000F005F9594B9A69584B02210A439A61D3
:10028800564B01220121180000F0C4F8A023DB0519
:1002980001220121180000F0BDF8A023DB059A69AE
:1002A800A023DB0502210A439A614D4B4D4A1A608F
:1002B8004B4B04225A604A4B1A68494B40210A4367
:1002C8001A60A023DB0501220A21180000F0A2F819
:1002D800454B2C221A60444B444ADA60424B1A6858
:1002E800414B01210A431A60414BDA68404B0F2108
:1002F8008A43DA603F4B1A683E4B10210A431A6062
:100308003C4B9A683B4B10210A439A603A4B3B4A54
:100318005A60394B00229A60374B07221A60384BD3
:1003280002229A60364B374ADA60354B01221A614D
:10033800334B354A9A61324B1A69314B05210A43CE
:100348001A611D2000F0E0FA072000F0DDFA012113
:100358001D2000F00DFB0221072000F009FB0123FE
:100368005B420321180000F003FB0D2000F0CCFADB
:1003780000210D2000F0FCFA244B1B4A1900100044
:1003880000F0A8FAA023DB050121180000F03AFCD0
:10039800012000F07DFEA023DB0501229A61FA23EB
:1003A8009B00180000F09CFB0C4B0121180000F08A
:1003B800C9FE174B180000F093FBC046FDE7C04686
:1003C80000100240FF1FFFFF002002400510000040
:1003D80001000480FFF3F3FF000404000004005050
:1003E800003001400C200000004800406824000054
:1003F800000001400004014010E000E0A04F1F0091
:10040800007C00400006400011120000642D000826
:10041800B80B000080B584B000AF78600800110008
:10042800FB1C021C1A70BB1C0A1C1A70FB1C1B78D4
:100438000F2B20D8FB1C1B789BB20E203A18DB1818
:100448001380BB1CBA1C127803210A401A707B68FF
:100458001B683A181288032191400A00D2431340BE
:10046800BA1C002151563A18128891400A001A43C2
:100478007B681A6000E0C046BD4604B080BD80B508
:1004880084B000AF786008001100FB1C021C1A70D1
:10049800BB1C0A1C1A70FB1C1B780F2B40D8BB1CFA
:1004A800BA1C127807210A401A700F203B18002244
:1004B8001A70FB1C1B78072B19D9FB1C1B78083BEF
:1004C800DAB23B1892001A707B685B6A3A181278A5
:1004D800072191400A00D2431340BA1C11783A18F8
:1004E800127891400A001A437B685A6219E00F207B
:1004F8003B18FA1C127892001A707B681B6A3A182B
:100508001278072191400A00D2431340BA1C11788F
:100518003A18127891400A001A437B681A6200E080
:10052800C046BD4604B080BD80B584B000AF134B53
:10053800BB60134BFB60134B7B6007E0FB68BB6041
:10054800FB680133FB60BB680133BB60FA687B68FA
:100558009A42F3D30C4BFB600C4B7B6005E0FB68C5
:1005680000221A70FB680133FB60FA687B689A42C4
:10057800F5D3C046C046BD4604B080BD000000208B
:10058800B8000008402F0008340400208C04002024
:1005980080B500AF0C4B1B78002B05D0A023DB05E2
:1005A8008022D2049A6104E0A023DB058022D200D5
:1005B8009A61054B1B7801225340DAB2024B1A703C
:1005C800C046BD4680BDC0463404002080B582B018
:1005D80000AF78600A00FB1C1A7009E07B681B7882
:1005E800FA1C12789A4208D17B6801337B60C046B6
:1005F8007B681B78002BF1D100E0C0467B681B7834
:10060800002B01D07B6800E000231800BD4602B033
:1006180080BD80B584B000AF78607B682021180069
:10062800FFF7D4FF0300FB601049FB6802221800A3
:1006380001F002FC031E06D10D4B9A690C4B0221F6
:100648000A439A610EE00B49FB680322180001F087
:10065800F3FB031E06D1064B9A69054B80218902DC
:100668000A439A61C046BD4604B080BD742D000897
:1006780000040050782D000880B584B000AF744B9A
:10068800DB69BB60BB682022134000D1DCE00F238C
:10069800FB1800221A706E4B5A6AFB1D1A706D4BBC
:1006A8006B4A1900100000F0F8F8FB1D1B785BB2CC
:1006B8001B115BB2DBB21A000F231340092B07DDB5
:1006C800FB1D1B781B09DBB23733DBB25BB206E0DC
:1006D800FB1D1B781B09DBB23033DBB25BB25C4A13
:1006E8001900100000F0C0F8FB1D1B785BB20F2248
:1006F8001340092B08DDFB1D1B780F221340DBB2CA
:100708003733DBB25BB207E0FB1D1B780F221340C7
:10071800DBB23033DBB25BB24D4A1900100000F097
:10072800A3F84B4B0021180000F0D4F8FB1D1B78F0
:100738005BB20D2B02D07F2B1BD035E0464B00223D
:100748009B5E1F2B08D0444B00229B5E5A1C434BD8
:10075800D31800221A7007E03F4B00229B5E1A0054
:100768003E4BD31800221A700F23FB1801221A706F
:1007780039E0394B00229B5E002B11DD364B0022FD
:100788009B5E9BB2013B9BB21AB2334B1A80324B31
:1007980000229B5E1A00314BD31800221A7022E007
:1007A8002E4B00221A701EE02B4B00229B5E1A0073
:1007B8002A4BD318FA1D12781A70274B00229B5E19
:1007C8009BB201339BB21AB2234B1A80224B0022F0
:1007D8009B5E1F2B06D1214B0022DA770F23FB18D3
:1007E80001221A70C0460F23FB181B78002B28D053
:1007F8001A4B1B78002B15D0194B154A19001000FD
:1008080000F068F8124B0921180000F02DF8134B7E
:100818000F4A1900100000F05DF8104B1800FFF7A0
:10082800F8FE05E00F4B0A4A1900100000F052F8D4
:10083800094B00221A80094B20220021180001F0E0
:1008480071FB034B08229A61C046BD4604B080BDC7
:10085800004800407C2D000858040020380400207F
:10086800802D0008942D000880B582B000AF786014
:100878000A00FB1C1A70FB1C00229A567B689A62BD
:10088800C0467B68DB6940221340FAD07B6840226F
:100898001A62C046BD4602B080BD80B582B000AFC6
:1008A800786039603B68002B10D00AE03B681B7801
:1008B8005AB27B6811001800FFF7D6FF3B68013376
:1008C8003B603B681B78002BF0D100E0C046BD467A
:1008D80002B080BD80B582B000AF786039603B68F7
:1008E800002B05D03A687B6811001800FFF7D5FF88
:1008F800044A7B6811001800FFF7CFFFC046BD46C9
:1009080002B080BDAC2D000880B582B000AF0200F7
:10091800FB1D1A70FB1D1B787F2B07D8FB1D1B784E
:100928005BB201229A40034B1A6000E0C046BD4604
:1009380002B080BD00E100E080B582B000AF0200E7
:10094800FB1D1A70FB1D1B787F2B0AD8FB1D1B781B
:100958005BB201229A401300044A19008023D15047
:1009680000E0C046BD4602B080BDC04600E100E0E0
:1009780080B584B000AF02003960FB1D1A70FB1D02
:100988001B785BB2002B00DA03339B105BB2FB6071
:10099800FB1D1B785BB22B4A134004D5013B042294
:1009A8005242134301335BB2DB00BB60FB1D1B7873
:1009B8007F2B18D8FB689B00234A944663441B6826
:1009C800FF21BA6891400A00D2431A401100BB685F
:1009D80006333A689A40FB689B001B488446634488
:1009E8000A431A602AE0FB1D1B785BB25A1C1AD016
:1009F800002B22DA5A1D0CD002331ED1134B1B6A6E
:100A0800134A134019003B689A05104B0A431A62AF
:100A180014E00E4BDB691B02190A3B689A070B4B63
:100A28000A43DA610AE0094B1B6A1B02190A3B6890
:100A38009A07064B0A431A6200E0C046C046BD4604
:100A480004B080BD0300008000E400E000ED00E099
:100A5800FFFF00FF80B582B000AF78600A00BB1CC2
:100A68001A8000E0C0467B689B6802221340F9D0D8
:100A7800BB1C1A887B68DA6000E0C0467B689B680C
:100A880001221340F9D07B68DB689BB2FF22134038
:100A98009BB21800BD4602B080BD80B582B000AFE1
:100AA80078600A00BB1C1A8000E0C0467B689B681F
:100AB80002221340F9D0BB1C1A887B68DA6000E078
:100AC800C0467B689B6801221340F9D07B68DB68CD
:100AD8009BB2FF2213409BB21800BD4602B080BDF6
:100AE80080B582B000AF0200BB1D1A80BB1D1B88F9
:100AF800002B39D08023DB0508221A608023DB0510
:100B080000229A608023DB050022DA608023DB055F
:100B1800BA1D1288DA628023DB05154A9A6280239F
:100B2800DB0500225A628023DB051A688023DB0577
:100B380001210A431A6000E0C0468023DB051B69D7
:100B480001221340F8D08023DB0500221A6180239C
:100B5800DB050022DA608023DB051A688023DB05C9
:100B680001218A431A6000E0C046BD4602B080BD3C
:100B78006110000080B582B000AF0200BB1D1A8072
:100B8800BB1D1B88002B39D08023DB0508221A6087
:100B98008023DB0500229A608023DB050022DA60CF
:100BA8008023DB05BA1D1288DA628023DB05032265
:100BB8009A628023DB0500225A628023DB051A68CB
:100BC8008023DB0501210A431A6000E0C046802328
:100BD800DB051B6901221340F8D08023DB050022C6
:100BE8001A618023DB050022DA608023DB051A689E
:100BF8008023DB0501218A431A6000E0C046BD4618
:100C080002B080BD80B582B000AF78600A00FB1CDE
:100C18001A70084B7A681A60074BFA1C12781A7017
:100C2800064B01220021180001F07CF9C046BD46A0
:100C380002B080BD5C040020600400206404002031
:100C480080B582B000AF184B1B689A69174B1B78A8
:100C58001033012199400B001900134B1B680A43FC
:100C68009A61134BE0211800FFF7F4FE104B0021A6
:100C78001800FFF7EFFE03007B607B68002BF5D0C0
:100C8800094B1B689A69094B1B78190001238B4093
:100C98001900054B1B680A439A617B689BB21800D0
:100CA800BD4602B080BDC0465C0400206004002040
:100CB8000030014080B582B000AF184B1B689A69BC
:100CC800174B1B781033012199400B001900134B67
:100CD8001B680A439A61134BE1211800FFF7BAFE1B
:100CE800104B00211800FFF7B5FE03007B607B68FE
:100CF800002BF5D0094B1B689A69094B1B78190022
:100D080001238B401900054B1B680A439A617B68D5
:100D18009BB21800BD4602B080BDC0465C040020EE
:100D28006004002000300140B0B586B000AF02007A
:100D38003960FB1D1A703B68002B02D101235B420E
:100D480091E04B4B1B689A694A4B1B781033012181
:100D580099400B001900464B1B680A439A61FB1D1A
:100D68001B78002B01D0E52300E0E423424A190058
:100D78001000FFF76FFE1420FFF7B2FE1623FB18D2
:100D880000221A703C4B00211800FFF763FE030095
:100D98001A0016217B181A700A00BB181B78002B42
:100DA800F0D0BB1800229A5615203B1803210A40A0
:100DB8001A703B181B785BB2002B27D11723FB183E
:100DC80000221A701CE012257C192B4B00211800F8
:100DD800FFF740FE0300238017217B181B785BB2C6
:100DE8000722D31A1A000823FB189B187A191288AD
:100DF800D2B21A707B181B780133DAB27B181A70DA
:100E08001723FB181B785BB2072BDCDD184B1B681C
:100E18009A69184B1B78190001238B401900144B51
:100E28001B680A439A613B681622BA1812781A702E
:100E38001522BB181B785BB2002B03D0BB181B789C
:100E48005BB210E03B68181D08243B1904330422E8
:100E5800190001F015F83B68083339190422180005
:100E680001F00EF800231800BD4606B0B0BDC0461C
:100E78005C040020600400200030014080B586B08A
:100E880000AF78600A00FB1C1A704C4B1B689A690B
:100E98004B4B1B781033012199400B001900474B2D
:100EA8001B680A439A617B68E7211800FFF7D2FDA7
:100EB800FB1C1B789AB27B6811001800FFF7CAFD6B
:100EC8001920FFF757FE7B6800211800FFF7C2FDC5
:100ED80003001A0015217B181A707B181B78002B49
:100EE800F1D01723FB1800221A7018E07B68002144
:100EF8001800FFF7AFFD0300190017203B181B78F7
:100F08005BB20122D31A1A001023FB189B18CAB22D
:100F18001A703B181B780133DAB23B181A70172382
:100F2800FB181B785BB2012BE0DD244B1B689A6928
:100F3800234B1B78190001238B4019001F4B1B689A
:100F48000A439A611023F9180E23FB18022218008D
:100F580000F096FF1623FB1800221A7020E01620D6
:100F68003B181B785BB20322D31ADBB29B00DAB2C0
:100F780014217B181A700E23FB181B881A007B1883
:100F88001B785BB21A411300DAB21323FB180F2146
:100F98000A401A703B181B780133DAB23B181A70F2
:100FA8001623FB181B785BB2032BD8DD0E23FB1826
:100FB8001B881800BD4606B080BDC0465C040020F2
:100FC8006004002080B584B000AF7860080011008C
:100FD800FB1C021C1A703B000A1C1A802A4B1B6857
:100FE8009A692A4B1B781033012199400B0019008C
:100FF800254B1B680A439A617B68E8211800FFF7B4
:1010080029FDFB1C1B789AB27B6811001800FFF7BA
:1010180021FD3B001B881B0A9AB27B68110018004F
:10102800FFF718FD3B001B88FF2213409AB27B682C
:1010380011001800FFF70EFD0120FFF751FD0F23E7
:10104800FB1800221A707B6800211800FFF702FDC8
:1010580003001A000F203B181A703B181B78002B4E
:10106800F1D0094B1B689A69084B1B7819000123BA
:101078008B401900044B1B680A439A613B181B7884
:101088001800BD4604B080BD5C0400206004002048
:10109800F0B585B000AF0200FB1D1A70FB1D1B7870
:1010A800002B29D0224B01220021180000F03AFF22
:1010B8000E257C191F4B3C211800FFF7DFFE0300AB
:1010C80023800C26BC191B4B3D211800FFF7D6FEC8
:1010D800030023807B191B881A04BB191B88134340
:1010E800BB60BB68DAB2124B1A70114B1B78002B2D
:1010F80002D10F4B05221A700F4B104A190010002D
:10110800FFF7E8FB0E4B0D4A19001000FFF7C5FB6F
:10111800074B1B78180000F0EDFB084B0021180066
:10112800FFF7D8FB024B1800BD4605B0F0BDC0461E
:101138006404002000300140B02D00080048004041
:10114800CC2D0008F0B58BB000AF78600A00FB1C0E
:101158001A70B84B7A681A60B74BFA1C12781A7072
:10116800B64B1B785BB2002B01D0B54B5DE1B44B9D
:1011780010220021180000F0D5FEAE4B1B689A69BA
:10118800AD4B1B781033012199400B001900A94B76
:101198001B680A439A61AB4B88211800FFF75AFC79
:1011A80026257C19A74B00211800FFF753FC0300E4
:1011B8002380A44B8A211800FFF74CFC2426BC1975
:1011C800A04B00211800FFF745FC030023809D4B2E
:1011D8008C211800FFF73EFC2223FC18994B0021B4
:1011E8001800FFF737FC03002380964B8E21180068
:1011F800FFF730FC2022BC18924B00211800FFF7A3
:1012080029FC030023808F4B90211800FFF722FC54
:101218001E217C188B4B00211800FFF71BFC0300D4
:101228002380884B92211800FFF714FC1C203C18DF
:10123800844B00211800FFF70DFC03002380814B2D
:1012480094211800FFF706FC1A243C197D4B002155
:101258001800FFF7FFFB030023807A4B9621180044
:10126800FFF7F8FB1823FC18764B00211800FFF74E
:10127800F1FB03002380734B00211800FFF7EAFB02
:101288006C4B1B689A696C4B1B78190001238B40C7
:101298001900684B1B680A439A617B191B881B025B
:1012A80019B2BB1900255A5F16257B190A431A8003
:1012B8002223FB181B881B0219B22022BB18002608
:1012C8009A5F1426BB190A431A801E217B181B88B3
:1012D8001B0219B21C203B1800201A5E1223FB18AF
:1012E8000A431A801A243B191B881B0219B21822B8
:1012F800BB1800201A5E10243B190A431A80524B6F
:10130800524A19001000FFF7E5FA514B4F4A1900ED
:101318001000FFF7C2FA7B1900229B5E0221180019
:1013280000F092FA4B4B494A19001000FFF7B5FA42
:10133800BB1900229B5E0221180000F085FA464B7B
:10134800424A19001000FFF7A8FA1223FB180022DE
:101358009B5E0221180000F077FA404B3B4A1900C7
:101368001000FFF79AFA3B1900229B5E0221180031
:1013780000F06AFA354B00211800FFF7ABFA7B1929
:1013880000229B5E180001F0ABFC031C8221C905FA
:10139800181C01F083F8031C1A1C294B1A60BB198E
:1013A80000229B5E180001F09BFC031C8C21C905E0
:1013B800181C01F073F8031C1A1C214B5A601223E5
:1013C800FB1800229B5E180001F08AFC031C8D218B
:1013D800C905181C01F062F8031C1A1C184B9A6006
:1013E8003B191B88DB0BDB0319B23B1900229B5E00
:1013F8009B101BB21A4A13401AB20E203B180A431C
:101408001A803B1800229B5E180001F069FC031C3F
:101418009521C905181C01F041F8031C1A1C084B3A
:10142800DA60064B01221A70054B1800BD460BB056
:10143800F0BDC0467C040020800400206804002021
:101448006C04002000300140E02D000800480040F6
:10145800FC2D0008042E00080C2E0008142E00088D
:10146800FFDFFFFFF0B587B000AF754B1B785BB2AD
:10147800002B01D10023DEE0724B1B689A69724B86
:101488001B781033012199400B0019006D4B1B6824
:101498000A439A616D4B24211800FFF7DBFA6B4B66
:1014A80000211800FFF7D6FA664B1B689A69664B4D
:1014B8001B78190001238B401900624B1B680A43F3
:1014C8009A610A20FFF70CFB5E4B1B689A695E4B1A
:1014D8001B781033012199400B001900594B1B68E8
:1014E8000A439A61594B80211800FFF7B3FA162571
:1014F8007C19564B00211800FFF7ACFA0300238033
:10150800524B82211800FFF7A5FA1426BC194F4B3D
:1015180000211800FFF79EFA030023804B4B84211B
:101528001800FFF797FA1223FC18484B00211800FF
:10153800FFF790FA03002380444B86211800FFF739
:1015480089FA1022BC18414B00211800FFF782FAD3
:10155800030023803D4B00211800FFF77BFA394B2D
:101568001B689A69384B1B78190001238B401900B6
:10157800344B1B680A439A617B191B881A02BB19F2
:101588001B8813439A110E217B181A801223FB180B
:101598001B881A021023FB181B8813439A110C216D
:1015A8007B181A802A4B1C68294B5D68284BDE681B
:1015B8007B181B88180001F093FB031C191C301CB6
:1015C80001F0FEF8031C191C281C00F003FE031C84
:1015D8001D1C0E23FB181B88180001F081FB031C3F
:1015E800191C281C01F0ECF8031C191C201C00F025
:1015F800F1FD031C1D1C164B9C680C217B181B88D5
:10160800180001F06DFB031C191C201C01F0D8F810
:10161800031C191C281C00F0DDFD031CBB600D49D0
:10162800B86801F0CDF8031C0B49181C00F0D2FD76
:10163800031C7B607B68181CBD4607B0F0BDC04624
:10164800680400207C040020800400200030014051
:101658006C0400208820823D0000484280B582B09A
:1016680000AF094B1B687B607B680222134007D0E0
:10167800064B1B685A1C054B1A60034B02225A6022
:10168800C046BD4602B080BD007C004084040020F6
:1016980080B582B000AF7860034B7A681A60C046A4
:1016A800BD4602B080BDC0468404002080B500AFAE
:1016B800024B1B681800BD4680BDC046840400204C
:1016C80080B500AF024B00221A60C046BD4680BDFF
:1016D80084040020B0B588B000AF524B5B69BB6191
:1016E8000720FFF729F9BB691022134000D191E0C8
:1016F80000237B614B4B10225A61FFF7D7FF030091
:101708003B61494B494A19001000FFF7E3F81E24D2
:101718003B1905221A800020FFF7BAFC03007B6101
:101728007B69002B03D07B691A783B191A80404BE0
:101738001B68002B08D03E4B1B683A69D21A1E233F
:10174800FB181B889A424AD3394B3A691A60FFF74B
:1017580089FE031CBB60374B344A19001000FFF7A1
:101768009CF8BB680321181C00F034F9324B2F4A4F
:1017780019001000FFF7AEF83B1D042200211800E5
:1017880000F0D0FB3B1D0822BA1812681A600E251B
:101798007C192A4B15211800FFF770FB03002380E2
:1017A8007B191B88DB0A9BB2DAB20D243B191F2177
:1017B8000A401A703B191B781433D9B23B1D5B8859
:1017C8001E481A00FFF7FEFB3B191B781533D9B2E8
:1017D8003B1D1B8819481A00FFF7F4FB1AE0184B49
:1017E800124A19001000FFF758F83B69DAB2104B9B
:1017F8001B68DBB2D31ADBB23033DBB25BB20B4A05
:1018080019001000FFF730F80E4B084A19001000B5
:10181800FFF760F80720FFF777F8C046BD4608B025
:10182800B0BDC046000401401C2E0008004800401E
:10183800880400203C2E0008602E0008003001407B
:10184800682E0008A02E000880B586B000AF78602A
:1018580039603B68DBB21322BA18DB181370234BCC
:10186800234A19001000FFF718F800237B612EE0C7
:101878001323FB181A787B690133D31A9B00FB608A
:101888007A68FB68DA4013000F221340092B0BD942
:101898007A68FB68DA401300DBB20F221340DBB230
:1018A8003733DBB25BB20AE07A68FB68DA401300D0
:1018B800DBB20F221340DBB23033DBB25BB20C4A2F
:1018C80019001000FEF7D0FF7B6901337B611323F9
:1018D800FB181B787A699A42CADB054B002118006D
:1018E800FEF7F8FFC046BD4606B080BDD42E0008FE
:1018F8000048004080B588B000AF78601E23FB1810
:1019080000221A807B68002B07DA7B685B427B60C9
:101918002F4B2D211800FEF7A7FF7B68BB610CE059
:101928001E22BB18BA18128801321A80BB690A2114
:10193800180000F051F90300BB61BB69002BEFDC14
:1019480000237B6139E01223FB1801221A8000234F
:10195800FB600BE01223FA18FB181B88191C89007E
:10196800CB18DB181380FB680133FB601E23FB18C0
:101978001A887B690133D31AFA689A42EADB122380
:10198800FB181B881900786800F026F903000A2163
:10199800180000F06BF90B001A000B217B181A7065
:1019A8007B181B783033DBB25BB2094A1900100090
:1019B800FEF75AFF7B6901337B611E23FB181B88E6
:1019C8007A699A42BFDBC046C046BD4608B080BDB2
:1019D8000048004080B58CB000AF786039600023C3
:1019E800FB620021786800F05FF9031E09D0564BAE
:1019F8002D211800FEF738FF7B688022120653401D
:101A08007B60786800F0CEFB0300BB6209E0FB6AEC
:101A18000133FB62BB6A0A21180000F097F8030043
:101A2800BB62BB6A002BF2D1786800F0BBFB0300F5
:101A3800BB6200237B622FE001233B620023FB6132
:101A480008E03A6A13009B009B185B003B62FB6945
:101A58000133FB617B6AFA6AD31A5A1EFB699A4200
:101A6800EFD8396AB86A00F071F803000A21180043
:101A780000F0A8F80B001A000A217B181A707B18CE
:101A88001B783033DBB25BB22F4A19001000FEF727
:101A9800EBFE7B6A01337B627B6AFA6A9A42CBD897
:101AA800294B2E211800FEF7DFFE786801F0FAF8BE
:101AB8000300180001F014F9031C191C786800F0E1
:101AC80083FF031CFB600023BB6134E001237B61BF
:101AD80000233B6108E07A6913009B009B185B00B8
:101AE8007B613B6901333B61BA693B699A42F2DA2F
:101AF800786901F0F5F8031CF968181C00F060FE1D
:101B0800031C181C01F0CEF803000A21180000F08D
:101B1800ADF80B001A000B217B181A707B181B7884
:101B28003033DBB25BB2084A19001000FEF79CFEA6
:101B3800BB690133BB61BB693A689A42C6D8C046E3
:101B4800C046BD460CB080BD00480040002934D0D6
:101B58000123002210B488422CD301242407A14277
:101B680004D2814202D209011B01F8E7E400A14234
:101B780004D2814202D249005B00F8E7884201D3CF
:101B8800401A1A434C08A04202D3001B5C082243A7
:101B98008C08A04202D3001B9C082243CC08A04218
:101BA80002D3001BDC082243002803D01B0901D004
:101BB8000909E3E7100010BC704701B5002000F0E8
:101BC8005FF802BD0029F8D003B5FFF7C1FF0EBCCE
:101BD8004243891A1847C046002941D010B404006E
:101BE8004C40A44601230022002900D54942002880
:101BF80000D5404288422CD301242407A14204D2B4
:101C0800814202D209011B01F8E7E400A14204D293
:101C1800814202D249005B00F8E7884201D3401AAA
:101C28001A434C08A04202D3001B5C0822438C08CC
:101C3800A04202D3001B9C082243CC08A04202D336
:101C4800001BDC082243002803D01B0901D0090926
:101C5800E3E710006446002C00D5404210BC7047F2
:101C680001B5002000F00CF802BDC0460029F7D0ED
:101C780003B5FFF7B3FF0EBC4243891A1847C046A5
:101C88007047C046844608006146FFE71FB500F06C
:101C980053FD002801D40021C8421FBD10B500F033
:101CA800E3FC4042013010BD10B500F045FD0028AE
:101CB80001DB002010BD012010BDC04610B500F0AA
:101CC8003BFD002801DD002010BD012010BDC046ED
:101CD80010B500F0EEFC002801DC002010BD01204A
:101CE80010BDC04610B500F0E4FC002801DA002061
:101CF80010BD012010BDC04602B471464908490014
:101D0800095C49008E4402BC7047C0461C2101236F
:101D18001B04984201D3000C10391B0A984201D3C6
:101D2800000A08391B09984201D30009043902A2A4
:101D3800105C40187047C04604030202010101010B
:101D4800000000000000000010B5064C2378002BAE
:101D580007D1054B002B02D0044800E000BF012347
:101D6800237010BD8C04002000000000242F000800
:101D7800044B10B5002B03D00349044800E000BF12
:101D880010BDC0460000000090040020242F000869
:101D9800FEF7CAFBFEF7C6F9FFF7FEFF10B5010014
:101DA80000230022002000F011F910BD10B5002119
:101DB800040000F06DF9044B1868C36B002B00D0C9
:101DC8009847200000F0ECF9FC2E000870B5074C8D
:101DD800074D641BA41005D0013CA300EB5898479D
:101DE800002CF9D101F0A2F870BDC046542F0008AC
:101DF800502F000870B50C4E0C4D761BB61005D050
:101E0800002408CD01349847A642FAD101F088F899
:101E1800074E084D761BB61005D0002408CD0134B6
:101E28009847A642FAD170BD482F0008482F0008ED
:101E3800502F0008482F000830B5032A0CD903009A
:101E48000B439B0719D104680B689C4215D1043ACF
:101E580004300431032AF6D8551E002A0BD000237B
:101E680003E05A1C9D4206D01300C25CCC5CA2421F
:101E7800F7D0101B00E0002030BD551EEFE7C0462C
:101E8800F0B5C64600B50F2A41D903240300260041
:101E98000B431E401C423FD11500103D2D09A8469A
:101EA8002D01AC4603000C00844427681D001F6008
:101EB80067685F60A7689F60E7681034DF60103369
:101EC8006545F2D145460F230C2401352D014919EA
:101ED80013404519144222D08C59AC5104369C1B2E
:101EE800032CF9D8043B9B0801339B00ED18C91853
:101EF80003231A40561E002A06D00023CC5C1A0081
:101F0800EC5401339642F9D180BCB846F0BD0500C7
:101F1800561E002AF1D1F7E70500561EEDE71A0014
:101F2800F6E7C046F0B50500830749D0541E002ADD
:101F380045D003000326CAB202E00135013C3ED376
:101F480001332A703342F8D1032C30D9FF250D40D4
:101F58002A022A43150415430F2C34D92700103FB1
:101F68003F093E01B4461E001A001036664415604B
:101F780055609560D5601032B242F8D101373F0103
:101F8800DB190F270C22274022403C00002A0ED0E4
:101F98003E1FB608B400A4461A001C1D644420C2A3
:101FA800A242FCD103240136B6009B193C40002C08
:101FB80005D0C9B21C19197001339C42FBD1F0BD80
:101FC80003001400C0E72700E2E7C046F0B5D64694
:101FD8004F4646469846264BC0B5060018689146B7
:101FE8009A460F0000F0D2F8A422224B52001B6838
:101FF8009D58002D32D053466C6818681F2C32DC6F
:10200800002E0CD1631C0234A4006B60675100F0F1
:10201800C5F80020E0BCBA46B146A846F0BD49461E
:102028008822A300EB189950C42149008C46AC447F
:102038006146873AA2400968914611436246116099
:102048008421424649005A50022EDBD129004A46D3
:102058008D31FF310B6813430B60D3E71D004D35FD
:10206800FF359D50C7E700F099F801204042D1E7BD
:1020780030040020FC2E0008034B10B5002B02D0C2
:102088000248FFF78BFE10BD00000000D51D0008B8
:10209800F0B54E46DE4657464546E0B5344B85B06A
:1020A800029018680393894600F070F8A422314B17
:1020B80052001B689E580193002E4ED075686C1E06
:1020C8004BD40135AD002B0080339846C4235B0008
:1020D8009B4677190135FF35B0447519B34407E0BD
:1020E80004235B429C46043FE044ED18013C34D392
:1020F8004B46002B02D02B684B45F1D173683A68E8
:10210800013BA34224D000233B60002AE8D0736837
:1021180059469A460123A340096819420DD19047B0
:10212800A422019B52009B587268524501D1B342C8
:10213800D6D0002B11D01E00C0E7300041468D30AC
:10214800FF3000680968184204D102989047E7E711
:102158007460DAE708009047E2E7039B186800F02C
:102168001DF805B0F0BCBB46B246A946A046F0BD76
:1021780030040020FC2E00087047C0467047C04657
:102188007047C0467047C0467047C0467047C04653
:1021980001207047012070477047C0467047C0460D
:1021A800FEE7C0469E2110B5C905041CFFF79AFD3D
:1021B80000280AD09E21201CC90500F005FC00F06B
:1021C80071FD80231B06C01810BD201C00F06AFD9D
:1021D800FAE70000F7B5802743025A0A94464A02F4
:1021E8004400C50F500A01904800240E000E9B09B8
:1021F800C90F9209261AFF048D4200D097E0002EDD
:1022080047DD002835D1002A12D0661E012C0DD1D9
:102218009B185A010CD50134FF2C00D12EE1012264
:102228009C491A405B080B40134301E0FF2C23D163
:102238005A0704D00F221A40042A00D004335A0146
:1022480005D50134FF2C00D121E1934A1340DB0866
:10225800FF2C04D1002B02D08022D2031343FF228B
:10226800E005D2055B0210405B0AED0718432843DE
:10227800FEBDFF2CDCD03A4301211B2E07DC2020B9
:10228800801B11008240F140501E824111435B18AF
:10229800BFE7002E21D0011B002C0CD1002B00D150
:1022A800E7E04C1E012902D101249B18B1E7FF2960
:1022B80005D11300A8E0FF28FBD00C003B43012107
:1022C8001B2C07DC19002026E140341BA3405C1EB0
:1022D800A341194304008B189BE7FE20611C0142AF
:1022E8001FD1002C0BD1002B00D1C4E0002A9FD0B5
:1022F8009B183B429CD0684A13400C0098E7002B7F
:10230800D7D0FF24002A00D192E780236246DB035E
:102318001A4203D0019A1A4200D194466346DB0060
:1023280072E0FF2900D1A8E09B185B08E5E7002EC2
:1023380023DD00281CD1002A00D179E7661E012C74
:1023480006D19B1A5A0100D472E79B019E0973E0DB
:10235800FF2C00D16CE701211B2E07DC2020801BFD
:1023680011008240F140501E824111435B1AE9E797
:10237800FF2C00D15CE73A43EDE7002E23D0051B84
:10238800002C0DD1002B08D06E1E012D03D10D009D
:10239800D31A0134D6E7FF2D06D113002C001FE015
:1023A800FF286DD02E003B4301241B2E07DC20257F
:1023B800AD1B1C00AB40F4405D1EAB411C43131B1E
:1023C8000D000400BEE7FE26601C30422FD1002C11
:1023D80014D1002B06D11D00002A00D128E71300D4
:1023E8000D0025E7002A00D122E7981AD31A3842AF
:1023F800F6D1031E00D01BE71D0019E7002B05D1FD
:10240800002A40D013000D00FF2411E7FF24002A02
:1024180000D10DE780236246DB031A4200D17DE735
:10242800019A1A4200D079E794460D0076E79E1A81
:102438003E4215D00D00D61A3000FFF767FC330076
:1024480005388340844210DC2022001B0130121A18
:1024580019009340C1405A1E934100240B43E7E6FC
:10246800002EE9D133003400C6E70B4A241A134082
:10247800DEE6130041E71300DAE60C000023D7E696
:1024880013000400ACE71D0080239B04BCE7002375
:10249800DDE6C046FFFFFF7DFFFFFFFBF0B5C30F82
:1024A80085B0440245000F1C640A2D0E0393029365
:1024B8000AD0FF2D3BD08023E400DB041C4300231B
:1024C8007F3D019500930EE0012301940093002CB9
:1024D80009D02000FFF71AFC431F9C4076235B427B
:1024E8001B1A019300957D027E006D0A360EFF0FC0
:1024F800002E23D0FF2E2ED08023ED00DB041D43B9
:1025080033007F3B002201980399C31A0098794051
:102518008000104301380E2831D8FFF7EDFB5B9D92
:102528006F9D989D6F5B5B986F222222610002234A
:1025380001950093002CD6D00133C3E72B0001226C
:10254800002DE0D02800FFF7E1FB431F9D407623D4
:102558005B421B1AD6E733000222002DD3D001328A
:10256800D1E70399009A00252800012A64D0AA42DD
:102578001CD0022A2ED0032A18D1029138E0640117
:102588006D01AC4228D31A200122641B01262700C2
:1025980052006400002F01DBA54201D8641B3243BE
:1025A80001380028F3D1601E8441144318007F309D
:1025B800002826DD620704D00F222240042A00D01A
:1025C8000434220103D580331800264A1440E50854
:1025D800FE2831DD00250FE01B200022013BD5E756
:1025E8008023DB031C4203D01D4201D12C0002973B
:1025F80080250299ED032543FF201DE02C003900BA
:10260800B1E701220025121A28001B2A14DC9E3388
:1026180025009C40D540631E9C4125436B0704D090
:102628000F232B40042B00D0043580232800DB0423
:1026380018401D4213D1ED08FF23C005DB056D02CC
:1026480018406D0A2843C907084305B0F0BD802427
:102658000023E4030293CBE700252800ECE70025DC
:102668000120E9E7FFFFFFF770B54B004402450082
:102678004E02C20F640A01202D0E760A1B0EC90FE6
:10268800FF2D06D1002C13D1FF2B11D1002E06D01F
:102698000EE0FF2B0CD09D420AD1B44208D1002095
:1026A8008A4205D00130002D02D12000431E9841F6
:1026B80070BD30B54A0244024500C30F4800640AA1
:1026C8002D0E520A000EC90FFF2D04D1002C2CD05C
:1026D8000220404213E0FF2801D1002AF8D1002D42
:1026E80025D1002801D1002A1CD0002C08D08B420B
:1026F80001D1854208DD0120002B00D0023830BD11
:10270800081EFCD10120E4E7854203DA002BF9D04A
:102718001800F4E79442EED800209442EFD28342A6
:10272800F6D1EFE7002CEAD0E5E7FF28D5D000285E
:10273800DDD1002ADFD0DAE730B54A02440245008D
:10274800C30F4800640A2D0E520A000EC90FFF2D50
:1027580003D1002C2CD0022013E0FF2801D1002A3D
:10276800F9D1002D26D1002801D1002A1DD0002C36
:1027780008D08B4201D1854209DD0120002B00D011
:10278800023830BD081EFCD101204042F9E78542DD
:1027980003DA002BF8D01800F3E79442EDD80020B4
:1027A8009442EED28342F6D1EEE7002CE9D0E4E77A
:1027B800FF28D4D00028DCD1002ADED0D9E70000D9
:1027C800F0B5C30F85B04502440001916D0A240E8F
:1027D8000393029367D0FF2C73D08023ED00DB04B2
:1027E8007F3C1D4300940027019B5C025E00DB0FC9
:1027F800640A360E01936AD0FF2E74D0802330000D
:10280800E400DB041C437F3800230199039ABE00CF
:102818004A4000991E438C46844461460131009128
:102828000A2E78DC022E64DC013E012E7BD9230CB3
:10283800A4B22600280CADB26E4344435D4358430E
:102848002D19330C5B199C4202D98021490240188A
:102858001C04B6B2A619B401651EAC411B0CB60E19
:102868001B1834439B011C431B0100D47FE0012348
:1028780060081C40044300997F31081E00DC79E0A1
:10288800630704D00F232340042B00D00434230112
:1028980004D500994B4B803108001C40E508FE2800
:1028A80049DD00255FE001270095002D9CD0280018
:1028B800FFF72CFA431F9D4076235B421B1A0093B7
:1028C80091E702270094002D8ED001378CE7200075
:1028D8000123002C99D0FFF719FA431F9C40762357
:1028E8005B42181A90E730000223002C8DD0013388
:1028F8008BE70120B040A6260100F60031403042A7
:1029080033D19026B600304251D1B93EFF3E304215
:102918008DD0019A07E00F2E18D0019A0B2E02D005
:102928002C00039A3B00022BBBD0032B43D000257D
:102938002800012B9FD1FF23C005DB056D0218403D
:102948006D0A2843D207104305B0F0BD8023DB038E
:102958001D4204D01C4202D12500019B0293802312
:10296800029ADB031D43FF20E5E72C00DAE7634604
:10297800009380E7012300255B1A28001B2BDADC73
:10298800009925009E318C40DD40631E9C41254303
:102998006B0704D00F232B40042B00D00435802371
:1029A8002800DB0418401D4208D1ED08C3E7802544
:1029B8000B00ED03D2E725000292D0E700250120A5
:1029C800B9E7C046FFFFFFF7F7B543024A025B0AC3
:1029D8004400C50F4E00500A9C4601930090240EF7
:1029E800DB00360EC80F9209FF2E02D10100002A23
:1029F80001D1012141408027A01BFF04A94200D03A
:102A08009AE000282BDD002E18D1002A00D13AE1E7
:102A1800461E01280ED101249B185A0154D50134B1
:102A2800FF2C00D12DE101229C491A405B080B4084
:102A3800134349E0FF2805D1FF2445E0FF2C43D08C
:102A480006003A4301211B2E07DC2020801B1100C1
:102A58008240F140501E824111435B18DDE7002897
:102A680021D0311B002C0CD1002B00D104E1481ED1
:102A7800012902D19B180134CFE7FF2905D11300A2
:102A8800DAE7FF2EFBD008003B4301211B2807DCB7
:102A980019002024C140201A8340581E834119433D
:102AA80034008B18B9E7FE26611C31423ED1002C58
:102AB8002BD1002B00D1E1E0002A05D09B183B4226
:102AC80002D0774A13400C005A0704D00F221A404C
:102AD800042A00D004335A0105D50134FF2C00D153
:102AE800DAE06F4A1340DB08FF2C04D1002B02D038
:102AF8008022D2031343FF22E005D2055B02104077
:102B08005B0AED0718432843FEBD002BB7D0FF240E
:102B1800002AD9D080236246DB031A4203D0009AE8
:102B28001A4200D10192019BDB0085E7FF2900D101
:102B3800A6E09B185B08C6E7002823DD002E1CD101
:102B4800002A00D19FE0461E012802D19B1A0124C9
:102B58000EE0FF2800D16FE701211B2E07DC2020A3
:102B6800801B11008240F140501E824111435B1AC4
:102B78005A01A9D59B019E0961E0FF2CA4D006004B
:102B88003A43E9E7002822D0301B002C0CD1002B57
:102B980007D0441E012802D10D00D31AD7E7FF2819
:102BA80006D1130004001FE0FF2E6ED004003B4343
:102BB80001201B2C07DC18002025E0402C1BA3401B
:102BC8005C1EA341184334000D00131AD0E7FE26FB
:102BD800601C30422ED1002C14D1002B06D11D00D0
:102BE800002A00D170E713000D006DE7002A00D11C
:102BF8006AE7981AD31A3842F6D1031E00D063E761
:102C08001D0061E7002B04D1002A41D013000D00FC
:102C180012E7FF24002A00D156E780236246DB032F
:102C28001A4200D17FE7009A1A4200D07BE70D00D4
:102C3800019278E79E1A3E4215D00D00D61A300050
:102C4800FFF764F8330005388340844210DC202203
:102C5800001B0130121A19009340C1405A1E9341BB
:102C680000240B4330E7002EE9D133003400C7E7D6
:102C78000B4A241A134027E7130024E7130023E71D
:102C88000C00002320E704001EE713003400ABE724
:102C98001D0080239B04CFE6002324E7FFFFFF7D70
:102CA800FFFFFFFB41024300C20F490A00201B0E31
:102CB8007E2B03DD9D2B02DD084BD018704780204A
:102CC80000040843952B05DD963B9840002AF5D073
:102CD8004042F3E79621CB1AD840F7E7FFFFFF7F82
:102CE80070B502000300041E0DD0C317C4185C4061
:102CF800C50F2000FFF70AF89E231B1A962B09DC44
:102D0800083884402A006402D805640A2043D207A0
:102D1800104370BD992B0ADD05222100121AD140FB
:102D28000A0001001B318C40611E8C4114430528A8
:102D380001DD421F9440220007490A40660704D07B
:102D48000F263440042C00D00432540102D59F23AE
:102D58000A401B1AD408D5E7FFFFFFFB48656C6CD7
:102D68006F2C20576F726C64000000006F6E0000BB
:102D78006F66660030780000642045786563757476
:102D88006520436F6D6D616E642E00006420697369
:102D980020656D70747920636F6D6D616E6420219C
:102DA800000000000D0A00002320454D3433323561
:102DB80020457874656E64656420436F6E66696744
:102DC8000000000009496E74657276616C205469D0
:102DD8006D65203D2000000023204D504C313135D9
:102DE800413120436F656666696369656E742E2E8E
:102DF8002E00000009613020203D200009623120AA
:102E0800203D200009623220203D20000963313234
:102E1800203D20002F2F2050413420E7AB8BE38149
:102E2800A1E4B88AE3818CE3828AE6A49CE587BAA8
:102E38002E2E2E0009E69BB8E3818DE8BEBCE38107
:102E4800BFE5AE9FE8A18C2E2E2E20E6B097E59C1C
:102E5800A7E580A4203D20005B6B50615D00000069
:102E680009E4BBA5E5898DE381AEE69BB8E3818DD6
:102E7800E8BEBCE381BFE38288E3828AE7B58CE9D8
:102E8800818EE69982E99693E3818C2035E7A792B3
:102E9800E69CAAE6BA8028005B735D29E381A7E374
:102EA8008182E3828BE3819FE38281E69BB8E381A1
:102EB8008DE8BEBCE381BFE38292E784A1E8A696D1
:102EC800E38197E381BEE381992E00003078003BCF
:102ED8003E0B3E103E253E333E033E063E143E0E5C
:102EE8003E0D3E243E123E273E023E183E093E0A53
:102EF8003E000000080000203B3E0B3E103E253EF1
:102F0800333E033E063E143E0E3E0D3E243E123E28
:102F1800273E023E183E093E0A3E0000000000001F
:102F2800F8B5C046F8BC08BC9E467047F8B5C04620
:082F3800F8BC08BC9E4670477E
:082F400078D1FF7F01000000C1
:082F480081200008791D00083A
:042F5000511D000807
:102F5400000000000800002000000000F40200202F
:102F64005C030020C40300200000000000000000F7
:102F7400000000000000000000000000000000004D
:102F8400000000000000000000000000000000003D
:102F9400000000000000000000000000000000002D
:102FA400000000000000000000000000000000001D
:102FB400000000000000000000000000000000000D
:102FC40000000000000000000000000000000000FD
:102FD40000000000000000000000000000000000ED
:102FE40000000000000000000000000000000000DD
:102FF40000000000000000000000000000000000CD
:1030040001000000000000000E33CDAB34126DE669
:10301400ECDE05000B0000000000000000000000D2
:10302400000000000000000000000000000000009C
:10303400000000000000000000000000000000008C
:10304400000000000000000000000000000000007C
:10305400000000000000000000000000000000006C
:04338400B004002071
:0400000508001D9939
:00000001FF
